{"abi":[{"type":"constructor","inputs":[],"stateMutability":"nonpayable"},{"type":"function","name":"eip712Domain","inputs":[],"outputs":[{"name":"fields","type":"bytes1","internalType":"bytes1"},{"name":"name","type":"string","internalType":"string"},{"name":"version","type":"string","internalType":"string"},{"name":"chainId","type":"uint256","internalType":"uint256"},{"name":"verifyingContract","type":"address","internalType":"address"},{"name":"salt","type":"bytes32","internalType":"bytes32"},{"name":"extensions","type":"uint256[]","internalType":"uint256[]"}],"stateMutability":"view"},{"type":"function","name":"executePullPayment","inputs":[{"name":"payment","type":"tuple","internalType":"struct FastPayCore.Payment","components":[{"name":"merchant","type":"address","internalType":"address"},{"name":"customer","type":"address","internalType":"address"},{"name":"token","type":"address","internalType":"address"},{"name":"amount","type":"uint256","internalType":"uint256"},{"name":"validUntil","type":"uint256","internalType":"uint256"},{"name":"nonce","type":"bytes32","internalType":"bytes32"}]},{"name":"signature","type":"bytes","internalType":"bytes"}],"outputs":[{"name":"success","type":"bool","internalType":"bool"}],"stateMutability":"nonpayable"},{"type":"function","name":"getPaymentHash","inputs":[{"name":"payment","type":"tuple","internalType":"struct FastPayCore.Payment","components":[{"name":"merchant","type":"address","internalType":"address"},{"name":"customer","type":"address","internalType":"address"},{"name":"token","type":"address","internalType":"address"},{"name":"amount","type":"uint256","internalType":"uint256"},{"name":"validUntil","type":"uint256","internalType":"uint256"},{"name":"nonce","type":"bytes32","internalType":"bytes32"}]}],"outputs":[{"name":"","type":"bytes32","internalType":"bytes32"}],"stateMutability":"view"},{"type":"function","name":"paymentCount","inputs":[{"name":"","type":"address","internalType":"address"}],"outputs":[{"name":"","type":"uint256","internalType":"uint256"}],"stateMutability":"view"},{"type":"function","name":"usedNonces","inputs":[{"name":"","type":"bytes32","internalType":"bytes32"}],"outputs":[{"name":"","type":"bool","internalType":"bool"}],"stateMutability":"view"},{"type":"function","name":"verifySignature","inputs":[{"name":"payment","type":"tuple","internalType":"struct FastPayCore.Payment","components":[{"name":"merchant","type":"address","internalType":"address"},{"name":"customer","type":"address","internalType":"address"},{"name":"token","type":"address","internalType":"address"},{"name":"amount","type":"uint256","internalType":"uint256"},{"name":"validUntil","type":"uint256","internalType":"uint256"},{"name":"nonce","type":"bytes32","internalType":"bytes32"}]},{"name":"signature","type":"bytes","internalType":"bytes"}],"outputs":[{"name":"valid","type":"bool","internalType":"bool"},{"name":"signer","type":"address","internalType":"address"}],"stateMutability":"view"},{"type":"event","name":"EIP712DomainChanged","inputs":[],"anonymous":false},{"type":"event","name":"PaymentExecuted","inputs":[{"name":"nonce","type":"bytes32","indexed":true,"internalType":"bytes32"},{"name":"merchant","type":"address","indexed":true,"internalType":"address"},{"name":"customer","type":"address","indexed":true,"internalType":"address"},{"name":"token","type":"address","indexed":false,"internalType":"address"},{"name":"amount","type":"uint256","indexed":false,"internalType":"uint256"}],"anonymous":false},{"type":"error","name":"ECDSAInvalidSignature","inputs":[]},{"type":"error","name":"ECDSAInvalidSignatureLength","inputs":[{"name":"length","type":"uint256","internalType":"uint256"}]},{"type":"error","name":"ECDSAInvalidSignatureS","inputs":[{"name":"s","type":"bytes32","internalType":"bytes32"}]},{"type":"error","name":"InvalidShortString","inputs":[]},{"type":"error","name":"ReentrancyGuardReentrantCall","inputs":[]},{"type":"error","name":"StringTooLong","inputs":[{"name":"str","type":"string","internalType":"string"}]}],"bytecode":{"object":"0x61016060405234801562000011575f80fd5b5060408051808201825260078152664661737450617960c81b602080830191909152825180840190935260018352603160f81b908301529062000055825f62000126565b610120526200006681600162000126565b61014052815160208084019190912060e052815190820120610100524660a052620000f360e05161010051604080517f8b73c3c69bb8fe3d512ecc4cf759cc79239f7b179b0ffacaa9a75d522b39400f60208201529081019290925260608201524660808201523060a08201525f9060c00160405160208183030381529060405280519060200120905090565b60805250503060c05260017f9b779b17422d0df92223018b32b4d1fa46e071723d6817e2486d003becc55f005562000385565b5f60208351101562000145576200013d836200015e565b905062000158565b8162000152848262000247565b5060ff90505b92915050565b5f80829050601f8151111562000194578260405163305a27a960e01b81526004016200018b919062000313565b60405180910390fd5b8051620001a18262000361565b179392505050565b634e487b7160e01b5f52604160045260245ffd5b600181811c90821680620001d257607f821691505b602082108103620001f157634e487b7160e01b5f52602260045260245ffd5b50919050565b601f8211156200024257805f5260205f20601f840160051c810160208510156200021e5750805b601f840160051c820191505b818110156200023f575f81556001016200022a565b50505b505050565b81516001600160401b03811115620002635762000263620001a9565b6200027b81620002748454620001bd565b84620001f7565b602080601f831160018114620002b1575f8415620002995750858301515b5f19600386901b1c1916600185901b1785556200030b565b5f85815260208120601f198616915b82811015620002e157888601518255948401946001909101908401620002c0565b5085821015620002ff57878501515f19600388901b60f8161c191681555b505060018460011b0185555b505050505050565b5f602080835283518060208501525f5b81811015620003415785810183015185820160400152820162000323565b505f604082860101526040601f19601f8301168501019250505092915050565b80516020808301519190811015620001f1575f1960209190910360031b1b16919050565b60805160a05160c05160e051610100516101205161014051610f72620003d75f395f61084301525f61081201525f61098601525f61095e01525f6108b901525f6108e301525f61090d0152610f725ff3fe608060405234801561000f575f80fd5b5060043610610060575f3560e01c80632286d2841461006457806358771bf41461008c5780637bdf3408146100b957806384b0196e146100cc578063d4236fe5146100e7578063feb6172414610119575b5f80fd5b610077610072366004610cc6565b61013b565b60405190151581526020015b60405180910390f35b6100ab61009a366004610d43565b60036020525f908152604090205481565b604051908152602001610083565b6100ab6100c7366004610d69565b6105dd565b6100d461065a565b6040516100839796959493929190610dc6565b6100fa6100f5366004610cc6565b61069c565b6040805192151583526001600160a01b03909116602083015201610083565b610077610127366004610e5d565b60026020525f908152604090205460ff1681565b5f610144610789565b6101516020850185610d43565b6001600160a01b0316336001600160a01b0316146101b65760405162461bcd60e51b815260206004820152601960248201527f4f6e6c79206d65726368616e742063616e20657865637574650000000000000060448201526064015b60405180910390fd5b83608001354211156101fc5760405162461bcd60e51b815260206004820152600f60248201526e14185e5b595b9d08195e1c1a5c9959608a1b60448201526064016101ad565b60a08401355f9081526002602052604090205460ff16156102545760405162461bcd60e51b8152602060048201526012602482015271139bdb98d948185b1c9958591e481d5cd95960721b60448201526064016101ad565b5f6102e67f8ab88d0d764b823cb6a0816180b36a2cad6e500cf7a04befe6a3827ff8aaba276102866020880188610d43565b6102966040890160208a01610d43565b6102a660608a0160408b01610d43565b89606001358a608001358b60a001356040516020016102cb9796959493929190610e74565b604051602081830303815290604052805190602001206107b7565b90505f61032a85858080601f0160208091040260200160405190810160405280939291908181526020018383808284375f9201919091525086939250506107e39050565b905061033c6040870160208801610d43565b6001600160a01b0316816001600160a01b0316146103905760405162461bcd60e51b8152602060048201526011602482015270496e76616c6964207369676e617475726560781b60448201526064016101ad565b60a08601355f90815260026020526040808220805460ff191660011790556103be9060608901908901610d43565b90506001600160a01b0381166323b872dd6103df60408a0160208b01610d43565b6103ec60208b018b610d43565b6040516001600160e01b031960e085901b1681526001600160a01b0392831660048201529116602482015260608a013560448201526064016020604051808303815f875af1158015610440573d5f803e3d5ffd5b505050506040513d601f19601f820116820180604052508101906104649190610eb3565b6104a25760405162461bcd60e51b815260206004820152600f60248201526e151c985b9cd9995c8819985a5b1959608a1b60448201526064016101ad565b60035f6104b260208a018a610d43565b6001600160a01b0316815260208101919091526040015f9081208054916104d883610ed2565b90915550600390505f6104f160408a0160208b01610d43565b6001600160a01b0316815260208101919091526040015f90812080549161051783610ed2565b9091555061052d90506040880160208901610d43565b6001600160a01b03166105436020890189610d43565b6001600160a01b031660a08901357f239c9a2f1925529773ef994cf7d2fb08ea36e49a3e7c37c05fa59aa73ef336b661058260608c0160408d01610d43565b604080516001600160a01b03909216825260608d013560208301520160405180910390a4600193505050506105d660017f9b779b17422d0df92223018b32b4d1fa46e071723d6817e2486d003becc55f0055565b9392505050565b5f6106547f8ab88d0d764b823cb6a0816180b36a2cad6e500cf7a04befe6a3827ff8aaba2761060f6020850185610d43565b61061f6040860160208701610d43565b61062f6060870160408801610d43565b866060013587608001358860a001356040516020016102cb9796959493929190610e74565b92915050565b5f6060805f805f606061066b61080b565b61067361083c565b604080515f80825260208201909252600f60f81b9b939a50919850469750309650945092509050565b5f80806107157f8ab88d0d764b823cb6a0816180b36a2cad6e500cf7a04befe6a3827ff8aaba276106d06020890189610d43565b6106e060408a0160208b01610d43565b6106f060608b0160408c01610d43565b8a606001358b608001358c60a001356040516020016102cb9796959493929190610e74565b905061075885858080601f0160208091040260200160405190810160405280939291908181526020018383808284375f9201919091525085939250506107e39050565b915061076a6040870160208801610d43565b6001600160a01b0316826001600160a01b031614925050935093915050565b610791610869565b60027f9b779b17422d0df92223018b32b4d1fa46e071723d6817e2486d003becc55f0055565b5f6106546107c36108ad565b8360405161190160f01b8152600281019290925260228201526042902090565b5f805f806107f186866109d6565b9250925092506108018282610a1f565b5090949350505050565b60606108377f00000000000000000000000000000000000000000000000000000000000000005f610adb565b905090565b60606108377f00000000000000000000000000000000000000000000000000000000000000006001610adb565b7f9b779b17422d0df92223018b32b4d1fa46e071723d6817e2486d003becc55f00546002036108ab57604051633ee5aeb560e01b815260040160405180910390fd5b565b5f306001600160a01b037f00000000000000000000000000000000000000000000000000000000000000001614801561090557507f000000000000000000000000000000000000000000000000000000000000000046145b1561092f57507f000000000000000000000000000000000000000000000000000000000000000090565b610837604080517f8b73c3c69bb8fe3d512ecc4cf759cc79239f7b179b0ffacaa9a75d522b39400f60208201527f0000000000000000000000000000000000000000000000000000000000000000918101919091527f000000000000000000000000000000000000000000000000000000000000000060608201524660808201523060a08201525f9060c00160405160208183030381529060405280519060200120905090565b5f805f8351604103610a0d576020840151604085015160608601515f1a6109ff88828585610b84565b955095509550505050610a18565b505081515f91506002905b9250925092565b5f826003811115610a3257610a32610ef6565b03610a3b575050565b6001826003811115610a4f57610a4f610ef6565b03610a6d5760405163f645eedf60e01b815260040160405180910390fd5b6002826003811115610a8157610a81610ef6565b03610aa25760405163fce698f760e01b8152600481018290526024016101ad565b6003826003811115610ab657610ab6610ef6565b03610ad7576040516335e2f38360e21b8152600481018290526024016101ad565b5050565b606060ff8314610af557610aee83610c4c565b9050610654565b818054610b0190610f0a565b80601f0160208091040260200160405190810160405280929190818152602001828054610b2d90610f0a565b8015610b785780601f10610b4f57610100808354040283529160200191610b78565b820191905f5260205f20905b815481529060010190602001808311610b5b57829003601f168201915b50505050509050610654565b5f80807f7fffffffffffffffffffffffffffffff5d576e7357a4501ddfe92f46681b20a0841115610bbd57505f91506003905082610c42565b604080515f808252602082018084528a905260ff891692820192909252606081018790526080810186905260019060a0016020604051602081039080840390855afa158015610c0e573d5f803e3d5ffd5b5050604051601f1901519150506001600160a01b038116610c3957505f925060019150829050610c42565b92505f91508190505b9450945094915050565b60605f610c5883610c89565b6040805160208082528183019092529192505f91906020820181803683375050509182525060208101929092525090565b5f60ff8216601f81111561065457604051632cd44ac360e21b815260040160405180910390fd5b5f60c08284031215610cc0575f80fd5b50919050565b5f805f60e08486031215610cd8575f80fd5b610ce28585610cb0565b925060c084013567ffffffffffffffff80821115610cfe575f80fd5b818601915086601f830112610d11575f80fd5b813581811115610d1f575f80fd5b876020828501011115610d30575f80fd5b6020830194508093505050509250925092565b5f60208284031215610d53575f80fd5b81356001600160a01b03811681146105d6575f80fd5b5f60c08284031215610d79575f80fd5b6105d68383610cb0565b5f81518084525f5b81811015610da757602081850181015186830182015201610d8b565b505f602082860101526020601f19601f83011685010191505092915050565b60ff60f81b881681525f602060e06020840152610de660e084018a610d83565b8381036040850152610df8818a610d83565b606085018990526001600160a01b038816608086015260a0850187905284810360c0860152855180825260208088019350909101905f5b81811015610e4b57835183529284019291840191600101610e2f565b50909c9b505050505050505050505050565b5f60208284031215610e6d575f80fd5b5035919050565b9687526001600160a01b0395861660208801529385166040870152919093166060850152608084019290925260a083019190915260c082015260e00190565b5f60208284031215610ec3575f80fd5b815180151581146105d6575f80fd5b5f60018201610eef57634e487b7160e01b5f52601160045260245ffd5b5060010190565b634e487b7160e01b5f52602160045260245ffd5b600181811c90821680610f1e57607f821691505b602082108103610cc057634e487b7160e01b5f52602260045260245ffdfea264697066735822122039f5f53947b17609dcfb1c870a65941de3eba35d379bdf9d0ca726227247f20b64736f6c63430008180033","linkReferences":{}},"methodIdentifiers":{"eip712Domain()":"84b0196e","executePullPayment((address,address,address,uint256,uint256,bytes32),bytes)":"2286d284","getPaymentHash((address,address,address,uint256,uint256,bytes32))":"7bdf3408","paymentCount(address)":"58771bf4","usedNonces(bytes32)":"feb61724","verifySignature((address,address,address,uint256,uint256,bytes32),bytes)":"d4236fe5"},"id":37}